{
  "abi": [
    {
      "type": "constructor",
      "inputs": [],
      "stateMutability": "nonpayable"
    },
    {
      "type": "function",
      "name": "addAirticle",
      "inputs": [
        {
          "name": "article",
          "type": "string",
          "internalType": "string"
        }
      ],
      "outputs": [],
      "stateMutability": "nonpayable"
    },
    {
      "type": "function",
      "name": "getArticles",
      "inputs": [],
      "outputs": [
        {
          "name": "",
          "type": "string[]",
          "internalType": "string[]"
        }
      ],
      "stateMutability": "view"
    },
    {
      "type": "function",
      "name": "getOwner",
      "inputs": [],
      "outputs": [
        {
          "name": "",
          "type": "address",
          "internalType": "address"
        }
      ],
      "stateMutability": "view"
    },
    {
      "type": "event",
      "name": "AddArticle",
      "inputs": [
        {
          "name": "user",
          "type": "address",
          "indexed": true,
          "internalType": "address"
        },
        {
          "name": "article",
          "type": "string",
          "indexed": false,
          "internalType": "string"
        }
      ],
      "anonymous": false
    }
  ],
  "bytecode": {
    "object": "0x6080604052348015600f57600080fd5b50600180546001600160a01b031916331790556104f4806100316000396000f3fe608060405234801561001057600080fd5b50600436106100415760003560e01c80636529f44a14610046578063893d20e814610064578063da4a8d6e1461007f575b600080fd5b61004e610094565b60405161005b9190610228565b60405180910390f35b6001546040516001600160a01b03909116815260200161005b565b61009261008d3660046102a3565b610176565b005b33600090815260208181526040808320805482518185028101850190935280835260609492939192909184015b8282101561016d5783829060005260206000200180546100e09061035c565b80601f016020809104026020016040519081016040528092919081815260200182805461010c9061035c565b80156101595780601f1061012e57610100808354040283529160200191610159565b820191906000526020600020905b81548152906001019060200180831161013c57829003601f168201915b5050505050815260200190600101906100c1565b50505050905090565b336000908152602081815260408220805460018101825590835291200161019d82826103e5565b50336001600160a01b03167fa7e1a140186fd615cc6b8d3d36710dba4298b4a1f7ca72520b7be8e6c90073d8826040516101d791906104a4565b60405180910390a250565b6000815180845260005b81811015610208576020818501810151868301820152016101ec565b506000602082860101526020601f19601f83011685010191505092915050565b6000602082016020835280845180835260408501915060408160051b86010192506020860160005b8281101561028157603f1987860301845261026c8583516101e2565b94506020938401939190910190600101610250565b50929695505050505050565b634e487b7160e01b600052604160045260246000fd5b6000602082840312156102b557600080fd5b813567ffffffffffffffff8111156102cc57600080fd5b8201601f810184136102dd57600080fd5b803567ffffffffffffffff8111156102f7576102f761028d565b604051601f8201601f19908116603f0116810167ffffffffffffffff811182821017156103265761032661028d565b60405281815282820160200186101561033e57600080fd5b81602084016020830137600091810160200191909152949350505050565b600181811c9082168061037057607f821691505b60208210810361039057634e487b7160e01b600052602260045260246000fd5b50919050565b601f8211156103e057806000526020600020601f840160051c810160208510156103bd5750805b601f840160051c820191505b818110156103dd57600081556001016103c9565b50505b505050565b815167ffffffffffffffff8111156103ff576103ff61028d565b6104138161040d845461035c565b84610396565b6020601f821160018114610447576000831561042f5750848201515b600019600385901b1c1916600184901b1784556103dd565b600084815260208120601f198516915b828110156104775787850151825560209485019460019092019101610457565b50848210156104955786840151600019600387901b60f8161c191681555b50505050600190811b01905550565b6020815260006104b760208301846101e2565b939250505056fea264697066735822122052063005129df3fe181b46e08c1e48a09ec39d9b056b21f0613a3f81abf36de464736f6c634300081a0033",
    "linkReferences": {}
  },
  "methodIdentifiers": {
    "addAirticle(string)": "da4a8d6e",
    "getArticles()": "6529f44a",
    "getOwner()": "893d20e8"
  },
  "id": 25
}