{
  "abi": [
    {
      "type": "constructor",
      "inputs": [],
      "stateMutability": "nonpayable"
    },
    {
      "type": "function",
      "name": "addArticle",
      "inputs": [
        {
          "name": "article",
          "type": "string",
          "internalType": "string"
        }
      ],
      "outputs": [],
      "stateMutability": "nonpayable"
    },
    {
      "type": "function",
      "name": "getArticles",
      "inputs": [],
      "outputs": [
        {
          "name": "",
          "type": "string[]",
          "internalType": "string[]"
        }
      ],
      "stateMutability": "view"
    },
    {
      "type": "function",
      "name": "getOwner",
      "inputs": [],
      "outputs": [
        {
          "name": "",
          "type": "address",
          "internalType": "address"
        }
      ],
      "stateMutability": "view"
    },
    {
      "type": "event",
      "name": "AddArticle",
      "inputs": [
        {
          "name": "user",
          "type": "address",
          "indexed": true,
          "internalType": "address"
        },
        {
          "name": "article",
          "type": "string",
          "indexed": false,
          "internalType": "string"
        }
      ],
      "anonymous": false
    }
  ],
  "bytecode": {
    "object": "0x6080604052348015600f57600080fd5b50600180546001600160a01b031916331790556104f4806100316000396000f3fe608060405234801561001057600080fd5b50600436106100415760003560e01c80630c971a46146100465780636529f44a1461005b578063893d20e814610079575b600080fd5b6100596100543660046101f8565b610094565b005b610063610100565b60405161007091906102f7565b60405180910390f35b6001546040516001600160a01b039091168152602001610070565b33600090815260208181526040822080546001810182559083529120016100bb82826103e5565b50336001600160a01b03167fa7e1a140186fd615cc6b8d3d36710dba4298b4a1f7ca72520b7be8e6c90073d8826040516100f591906104a4565b60405180910390a250565b33600090815260208181526040808320805482518185028101850190935280835260609492939192909184015b828210156101d957838290600052602060002001805461014c9061035c565b80601f01602080910402602001604051908101604052809291908181526020018280546101789061035c565b80156101c55780601f1061019a576101008083540402835291602001916101c5565b820191906000526020600020905b8154815290600101906020018083116101a857829003601f168201915b50505050508152602001906001019061012d565b50505050905090565b634e487b7160e01b600052604160045260246000fd5b60006020828403121561020a57600080fd5b813567ffffffffffffffff81111561022157600080fd5b8201601f8101841361023257600080fd5b803567ffffffffffffffff81111561024c5761024c6101e2565b604051601f8201601f19908116603f0116810167ffffffffffffffff8111828210171561027b5761027b6101e2565b60405281815282820160200186101561029357600080fd5b81602084016020830137600091810160200191909152949350505050565b6000815180845260005b818110156102d7576020818501810151868301820152016102bb565b506000602082860101526020601f19601f83011685010191505092915050565b6000602082016020835280845180835260408501915060408160051b86010192506020860160005b8281101561035057603f1987860301845261033b8583516102b1565b9450602093840193919091019060010161031f565b50929695505050505050565b600181811c9082168061037057607f821691505b60208210810361039057634e487b7160e01b600052602260045260246000fd5b50919050565b601f8211156103e057806000526020600020601f840160051c810160208510156103bd5750805b601f840160051c820191505b818110156103dd57600081556001016103c9565b50505b505050565b815167ffffffffffffffff8111156103ff576103ff6101e2565b6104138161040d845461035c565b84610396565b6020601f821160018114610447576000831561042f5750848201515b600019600385901b1c1916600184901b1784556103dd565b600084815260208120601f198516915b828110156104775787850151825560209485019460019092019101610457565b50848210156104955786840151600019600387901b60f8161c191681555b50505050600190811b01905550565b6020815260006104b760208301846102b1565b939250505056fea26469706673582212206631a7ce5903a27d082c33831659450e92f87adcd6e10c978dfde376c979ebbf64736f6c634300081a0033",
    "linkReferences": {}
  },
  "methodIdentifiers": {
    "addArticle(string)": "0c971a46",
    "getArticles()": "6529f44a",
    "getOwner()": "893d20e8"
  },
  "id": 25
}